S01D0000446F6F725F6C6F636B65725F434E54524C5F4543552E7372656376
S11300000C942A000C9447000C9447000C9447006D
S11300100C9447000C9447000C9447000C94470040
S11300200C9447000C9447000C9447000C94470030
S11300300C9447000C9475040C9447000C944700EE
S11300400C9447000C9447000C9447000C94470010
S11300500C94470011241FBECFE5D8E0DEBFCDBF0E
S113006010E0A0E6B0E0E0E1FDE002C005900D92F2
S1130070A438B107D9F720E0A4E8B0E001C01D928C
S1130080A638B207E1F70E94E6010C9486060C94A8
S113009000000E94870478940E94C5020E94D20244
S11300A00E942E040E94F601089563E670E080E049
S11300B00E9437028130A1F5809163008F3F79F46B
S11300C0809164008F3F59F4809165008F3F39F42B
S11300D0809166008F3F19F41092600003C081E0A4
S11300E080936000809160000E949004809162007F
S11300F00E949004809161000E94900480916300AA
S11301000E949004809164000E9490048091650094
S11301100E949004809166000E94900481E00895FA
S113012080E008958F929F92AF92BF92CF92DF9218
S1130130EF92FF920F931F93CF93DF930E9455008A
S1130140813009F078C080916000811127C00E943D
S113015099048823E1F30E949404809363000E942D
S113016099048823E1F30E949404809364000E941C
S113017099048823E1F30E949404809365000E940B
S113018099048823E1F30E9494048093660063E653
S113019070E080E00E94F90181E04EC0C2E6D0E048
S11301A004E610E00F2EF5E6EF2EF0E0FF2EF02D22
S11301B00F2EF6E6CF2EF0E0DF2EF02D0E949904EC
S11301C08823E1F30E949404B82E0E9499048823A2
S11301D0E1F30E949404A82E0E9499048823E1F379
S11301E00E949404982E0E9499048823E1F30E94AB
S11301F09404882E63E670E080E00E9437029091B8
S11302006300B91213C0F8018081A8120FC0F7016E
S1130210808198120BC0F6018081881207C081E0AA
S1130220809362000E94900481E006C0188280E0FE
S11302300E949004C3CF80E0DF91CF911F910F9172
S1130240FF90EF90DF90CF90BF90AF909F908F90F2
S11302500895CF93C82F0E94E3028C2F0E9432048A
S11302600E940403CF9108950E948E030E94A40368
S11302700E942E0408950E9499048823E1F30E94A9
S11302809404809363000E9499048823E1F30E94FC
S11302909404809364000E9499048823E1F30E94EB
S11302A09404809365000E9499048823E1F30E94DA
S11302B094048093660063E670E080E00E94F90194
S11302C008950E9499048823E1F30E9494048133E1
S11302D049F40E9499048823E1F30E9494040E9443
S11302E029010895823319F40E94340108950E946B
S11302F03B010895FC018081823449F018F4813473
S113030089F40EC0833431F0843461F406C0A7E369
S1130310B0E008C0A4E3B0E005C0A1E3B0E002C0CF
S1130320AAE3B0E08281813061F481E090E0018051
S113033002C0880F991F0A94E2F79C91892B8C9331
S1130340089581110CC081E090E0018002C0880F03
S1130350991F0A94E2F780959C9189238C930895C0
S1130360FC018081823449F018F4813489F40EC090
S1130370833431F0843461F406C0A8E3B0E008C0EB
S1130380A5E3B0E005C0A2E3B0E002C0ABE3B0E097
S11303908381813061F481E090E0018002C0880FA4
S11303A0991F0A94E2F79C91892B8C9308958111EB
S11303B00CC081E090E0018002C0880F991F0A946C
S11303C0E2F780959C9189238C9308950E944900BB
S11303D02FEF80E792E0215080409040E1F700C089
S11303E000000E9492000E946101FDCF0E949E02C3
S11303F008950F931F93CF93DF93C82F062F172FC2
S11304000E94A4020E94C202883029F58C2F807EAB
S113041082958F70806A0E94AD020E94C202883168
S1130420E1F48C2F880F880F0E94AD020E94C20253
S11304308832A9F4C02FD12F10E089910E94AD0217
S11304400E94C202883269F41F5F1430B1F70E941F
S1130450AA0281E007C080E005C080E003C080E01C
S113046001C080E0DF91CF911F910F910895FF9219
S11304700F931F93CF93DF93F82EEB010E94A402F6
S11304800E94C202883009F046C00F2D007E10E0A1
S11304901595079515950795159507951595079540
S11304A0802F806A0E94AD020E94C2028831A9F5A1
S11304B08F2D880F880F0E94AD020E94C2028832DD
S11304C071F50E94A4020E94C202803151F5802F6E
S11304D0816A0E94AD020E94C202803421F58E011D
S11304E0F12C0E94B402F80181938F010E94C20290
S11304F08035D9F4F394F3E0FF12F3CFCF0DD11D7F
S11305000E94BB0288830E94C202883581F40E9443
S1130510AA0281E00DC080E00BC080E009C080E049
S113052007C080E005C080E003C080E001C080E037
S1130530DF91CF911F910F91FF90089511B882E040
S113054080B984E086BF089584EA86BF06B607FEB4
S1130550FDCF089584E986BF089583B984E886BFF2
S113056006B607FEFDCF089584EC86BF06B607FEE7
S1130570FDCF83B1089584E886BF06B607FEFDCF9C
S113058083B1089581B1887F089587E690E00E9441
S11305907A018BE690E00E947A018FE690E00E9457
S11305A07A01089583E790E00E947A0187E790E05A
S11305B00E947A018BE790E00E947A018FE790E035
S11305C00E947A010895CF93C1E0C0936A0087E640
S11305D090E00E94B0018BE690E00E94B0018FE6AB
S11305E090E00E94B0012FEF89E698E1215080400D
S11305F09040E1F700C00000C0936E008BE690E0ED
S11306000E94B001CF910895DF92EF92FF920F9371
S11306101F93CF93DF93C6E7D0E0DD24D394D88231
S11306200AE710E0F801D08283E790E00E94B0016D
S113063087E790E00E94B0018BE790E00E94B00150
S11306408FE790E00E94B001FFEF24E38CE0F150CB
S113065020408040E1F700C0000018820F2EFEE722
S1130660EF2EF0E0FF2EF02DF701D08283E790E02B
S11306700E94B0018BE790E00E94B001FFEF24E3F9
S11306808CE0F15020408040E1F700C00000F80108
S1130690108202E810E0F801D08287E790E00E941F
S11306A0B0018FE790E00E94B001FFEF24E38CE0FB
S11306B0F15020408040E1F700C00000F7011082B3
S11306C0D88283E790E00E94B0018BE790E00E941B
S11306D0B001FFEF24E38CE0F15020408040E1F7CB
S11306E000C000001882F801108283E790E00E94A5
S11306F0B0018FE790E00E94B001FFEF24E38CE0AB
S1130700F15020408040E1F700C00000DF91CF911C
S11307101F910F91FF90EF90DF90089510926A005F
S113072087E690E00E94B0012FEF89E698E121501E
S113073080409040E1F700C0000010926E008BE60C
S113074090E00E94B0010895DF92EF92FF920F9320
S11307501F93CF93DF93C2E8D0E0DD24D394D882F3
S11307600EE710E0F801D08283E790E00E94B00128
S113077087E790E00E94B0018BE790E00E94B0010F
S11307808FE790E00E94B001FFEF24E38CE0F1508A
S113079020408040E1F700C0000018820F2EFAE7E5
S11307A0EF2EF0E0FF2EF02DF701D0828FE790E0DE
S11307B00E94B00187E790E00E94B001FFEF24E3BC
S11307C08CE0F15020408040E1F700C00000F801C7
S11307D0108206E710E0F801D0828BE790E00E94D7
S11307E0B00183E790E00E94B001FFEF24E38CE0C6
S11307F0F15020408040E1F700C00000F701108272
S1130800D88287E790E00E94B0018FE790E00E94D1
S1130810B001FFEF24E38CE0F15020408040E1F789
S113082000C00000F8011082188283E790E00E9463
S1130830B0018FE790E00E94B001FFEF24E38CE069
S1130840F15020408040E1F700C00000DF91CF91DB
S11308501F910F91FF90EF90DF90089580E10E9427
S113086050040895682F70E080E090E00E9497059E
S113087024E13EEA4EE253E40E94230620E030E005
S113088044E353E40E9401052CE53FE842E851E4C7
S11308900E949D040E946905862F0E947104089598
S11308A00F931F93CF93DF9300D000D0CDB7DEB763
S11308B0082F82E4898383E08A8311E01B831C83ED
S11308C0CE0101960E947A0184E783BF101B1CBFEE
S11308D00F900F900F900F90DF91CF911F910F9178
S11308E0089591E0981B9CBF08951F920F920FB634
S11308F00F9211248F9381E0809384008CB18093B4
S113090085008F910F900FBE0F901F9018951BB804
S113091088E98AB986E880BD10BC83E389B9089563
S11309205D9BFECF8CB90895109284008091850060
S113093008958091840008955058BB27AA270ED0AB
S113094048C139D130F03ED120F031F49F3F11F449
S11309501EF42EC10EF4E095E7FB24C1E92F4AD121
S113096080F3BA17620773078407950718F071F4C8
S11309709EF562C10EF4E0950B2EBA2FA02D0B014B
S1130980B90190010C01CA01A0011124FF27591BD0
S113099099F0593F50F4503E68F11A16F040A22FD6
S11309A0232F342F4427585FF3CF46953795279547
S11309B0A795F0405395C9F77EF41F16BA0B620B46
S11309C0730B840BBAF09150A1F0FF0FBB1F661F8D
S11309D0771F881FC2F70EC0BA0F621F731F841FD0
S11309E048F4879577956795B795F7959E3F08F0F6
S11309F0B3CF9395880F08F09927EE0F97958795B5
S1130A0008950CD0E6C0DED040F0D5D030F021F40B
S1130A105F3F19F0C7C0511110C1CAC0EBD098F3A1
S1130A209923C9F35523B1F3951B550BBB27AA276B
S1130A3062177307840738F09F5F5F4F220F331FDD
S1130A40441FAA1FA9F333D00E2E3AF0E0E830D0A9
S1130A5091505040E695001CCAF729D0FE2F27D0AC
S1130A60660F771F881FBB1F261737074807AB077A
S1130A70B0E809F0BB0B802DBF01FF2793585F4FEF
S1130A802AF09E3F510568F08DC0D7C05F3FECF35C
S1130A90983EDCF3869577956795B795F7959F5FB4
S1130AA0C9F7880F911D9695879597F90895E1E008
S1130AB0660F771F881FBB1F621773078407BA0767
S1130AC020F0621B730B840BBA0BEE1F88F7E095C2
S1130AD0089598D088F09F5790F0B92F9927B7516F
S1130AE0A0F0D1F0660F771F881F991F1AF0BA95EE
S1130AF0C9F712C0B13081F09FD0B1E008959CC015
S1130B00672F782F8827B85F39F0B93FCCF38695E3
S1130B1077956795B395D9F73EF490958095709540
S1130B2061957F4F8F4F9F4F0895E89409C097FBBD
S1130B303EF490958095709561957F4F8F4F9F4FB0
S1130B409923A9F0F92F96E9BB279395F6958795F4
S1130B5077956795B795F111F8CFFAF4BB0F11F4B7
S1130B6060FF1BC06F5F7F4F8F4F9F4F16C088235E
S1130B7011F096E911C0772321F09EE8872F762F94
S1130B8005C0662371F096E8862F70E060E02AF0D5
S1130B909A95660F771F881FDAF7880F96958795C1
S1130BA097F9089597F99F6780E870E060E00895E9
S1130BB09FEF80EC089500240A9416161706180671
S1130BC00906089500240A9412161306140605064D
S1130BD00895092E0394000C11F4882352F0BB0FDE
S1130BE040F4BF2B11F460FF04C06F5F7F4F8F4F41
S1130BF09F4F089557FD9058440F551F59F05F3F7C
S1130C0071F04795880F97FB991F61F09F3F79F02A
S1130C1087950895121613061406551FF2CF4695AC
S1130C20F1DF08C0161617061806991FF1CF86952E
S1130C307105610508940895E894BB276627772712
S1130C40CB0197F908950BD0C4CFB5DF28F0BADFF4
S1130C5018F0952309F0A6CFABCF1124EECFCADF4D
S1130C60A0F3959FD1F3950F50E0551F629FF001BB
S1130C70729FBB27F00DB11D639FAA27F00DB11D14
S1130C80AA1F649F6627B00DA11D661F829F22279D
S1130C90B00DA11D621F739FB00DA11D621F839F24
S1130CA0A00D611D221F749F3327A00D611D231FFA
S1130CB0849F600D211D822F762F6A2F11249F5748
S1130CC050408AF0E1F088234AF0EE0FFF1FBB1F6B
S1130CD0661F771F881F91505040A9F79E3F51050A
S1130CE070F060CFAACF5F3FECF3983EDCF38695BB
S1130CF077956795B795F795E7959F5FC1F7FE2BB5
S1130D00880F911D9695879597F90895F894FFCFCC
S1130D10010000FFFFFFFF44020100440301004300
S1130D2005010141000100410101004102010041AE
S1070D3003010000B7
S9030000FC
