S01B0000446F6F725F6C6F636B65725F484D495F4543552E737265631D
S11300000C942A000C9447000C9447000C9447006D
S11300100C9447000C9447000C9447000C94470040
S11300200C9447000C9447000C9447000C94470030
S11300300C9447000C947B050C9447000C944700E7
S11300400C9447000C9447000C9447000C94470010
S11300500C94470011241FBECFE5D8E0DEBFCDBF0E
S113006011E0A0E6B0E0E4E9FBE002C005900D92E7
S1130070A63EB107D9F721E0A6EEB1E001C01D927A
S1130080AF3EB207E1F70E9417010C94C8050C9427
S1130090000080E690E00E94AB0084E690E00E94BD
S11300A0AB0088E690E00E94AB00089581E0809365
S11300B0670084E690E00E94E100089510926700D2
S11300C084E690E00E94E100089581E0809363005B
S11300D080E690E00E94E10008951092630080E6BB
S11300E090E00E94E1000895CF93DF93CBE6D0E047
S11300F081E0888388E690E00E94E1002FEF89E6A2
S113010098E1215080409040E1F700C0000018823F
S113011088E690E00E94E100DF91CF9108950E946B
S113012065002FEF89E698E1215080409040E1F787
S113013000C000000E946D0008950E9456002FEF39
S113014089E698E1215080409040E1F700C000002A
S11301500E945E000895FC018081823449F018F405
S1130160813489F40EC0833431F0843461F406C0E0
S1130170A7E3B0E008C0A4E3B0E005C0A1E3B0E0A9
S113018002C0AAE3B0E08281813061F481E090E0B2
S1130190018002C0880F991F0A94E2F79C91892B71
S11301A08C93089581110CC081E090E0018002C01D
S11301B0880F991F0A94E2F780959C9189238C9368
S11301C00895FC018081823449F018F4813489F463
S11301D00EC0833431F0843461F406C0A8E3B0E087
S11301E008C0A5E3B0E005C0A2E3B0E002C0ABE301
S11301F0B0E08381813061F481E090E0018002C04D
S1130200880F991F0A94E2F79C91892B8C93089587
S113021081110CC081E090E0018002C0880F991F19
S11302200A94E2F780959C9189238C9308950E9407
S113023020010E94C7020E9461010E94C804FDCFF0
S11302400E948D0578940E9459050E9449000895E2
S11302500E949F058823E1F30E949A058093E6019A
S11302600E949F058823E1F30E949A058093E80188
S11302700E949F058823E1F30E949A058093E70179
S11302800E949F058823E1F30E949A058093E90167
S11302900E949F058823E1F30E949A058093EA0156
S11302A00E949F058823E1F30E949A058093EB0145
S11302B00E949F058823E1F30E949A058093EC0134
S11302C008954F925F926F927F928F929F92AF9216
S11302D0BF92CF92DF92EF92FF920F931F93CF932F
S11302E0DF93CDB7DEB727970FB6F894DEBF0FBE06
S11302F0CDBF182F19821A821B821C821D821E8276
S11303001F820E949605113309F04DC07E0124E03E
S1130310E20EF11C0E9455058CE790E00E94400516
S11303208E010F5F1F4F0E94EE048F3FE1F30E9486
S1130330EE04F80181938F010E943405FFEF24E35A
S11303408CE0F15020408040E1F700C000000E1521
S11303501F0549F7CE0101960E94A205843B910531
S113036080F00E94550584E990E00E9440059FEFCB
S1130370E9E6F8E19150E040F040E1F700C0000008
S1130380C9CF0E9496050E94550582EA90E00E941A
S113039040052FEF89E698E1215080409040E1F735
S11303A000C00000C3C0123381F40E94550585EBE0
S11303B090E00E944005EFEFF9E628E1E150F040BB
S11303C02040E1F700C00000B1C0133309F0ADC014
S11303D00F2EF9EEAF2EF1E0BF2EF02D0F2EFDEE15
S11303E0CF2EF1E0DF2EF02D6894EE24E2F8F12C0C
S11303F0EC0EFD1E84E0E80EF11C0F2EFAEE8F2E9B
S1130400F1E09F2EF02D0F2EFBEE4F2EF1E05F2E2C
S1130410F02D0F2EFCEE6F2EF1E07F2EF02D0E94BA
S1130420550588EC90E00E9440050E947305850103
S11304300E94EE048F3FE1F30E94EE04F8018193E1
S11304408F010E943405FFEF24E38CE0F15020403B
S11304508040E1F700C000000C151D0549F70E941B
S113046055058CED90E00E9440050E9473058E01B5
S11304700C5F1F4F0E94EE048F3FE1F30E94EE04D5
S1130480F80181938F010E943405FFEF24E38CE08F
S1130490F15020408040E1F700C000000E151F0518
S11304A049F78C81F501908189132DC02D81F401C8
S11304B09081291328C02E81F2019081291323C031
S11304C02F81F301908129131EC00E94960580910B
S11304D0EA010E9496058091EB010E9496058091A5
S11304E0EC010E9496050E94550581EF90E00E9460
S11304F04005FFEF29E688E1F15020408040E1F714
S113050000C0000013C00E94550584E091E00E94E1
S113051040059FEFE9E6F8E19150E040F040E1F753
S113052000C000000E9455057ACFFFCF27960FB672
S1130530F894DEBF0FBECDBFDF91CF911F910F9115
S1130540FF90EF90DF90CF90BF90AF909F908F90EF
S11305507F906F905F904F900895CF930E94EE0428
S11305608F3FE1F30E94EE04C82F81538330B0F72C
S11305708C2F0E9434052FEF84E39CE021508040AF
S11305809040E1F700C000008C2FCF9108952F9286
S11305903F924F925F926F927F928F929F92AF920F
S11305A0BF92CF92DF92EF92FF920F931F93CF935C
S11305B0DF9300D000D0CDB7DEB78FEF89838A8375
S11305C08B838C830E9428018091E601882349F162
S11305D00F2EF3E03F2EF02D0F2EF9EEEF2EF1E06B
S11305E0FF2EF02D0F2EFDEE8F2EF1E09F2EF02D1D
S11305F00F2EFAEEAF2EF1E0BF2EF02D0F2EFBEEF4
S1130600CF2EF1E0DF2EF02D0F2EFCEE6F2EF1E059
S11306107F2EF02D0F2EF8EE4F2EF1E05F2EF02DF1
S113062010C10F2EF9EEAF2EF1E0BF2EF02D0F2EDC
S1130630FDEECF2EF1E0DF2EF02D0F2EFAEE6F2E11
S1130640F1E07F2EF02D0F2EFBEE4F2EF1E05F2E0A
S1130650F02D0F2EFCEE2F2EF1E03F2EF02D4E014B
S113066025E0820E911C88E191E00E9440050E94E1
S1130670730585010E94EE048F3FE1F30E94EE04AE
S11306807801F80181938F010E943405FFEF24E380
S11306908CE0F15020408040E1F700C00000F701F9
S11306A080818336D1F40E9455058CE291E00E944A
S11306B04005FFEF29E688E1F15020408040E1F752
S11306C000C000000E945505F5011082F30110825C
S11306D0F2011082F1011082C6CF0C151D0551F6EE
S11306E00E94EE048F3FE1F30E94EE048D3309F083
S11306F089C00E943405FFEF29E688E1F1502040CB
S11307008040E1F700C000000E9455058EE391E0AF
S11307100E9440050E9473058E010F5F1F4F0E94C7
S1130720EE048F3FE1F30E94EE04F82EF80181936A
S11307308F010E943405FFEF24E38CE0F150204048
S11307408040E1F700C0000093E6F91216C00E9451
S113075055058CE291E00E944005EFEFF9E628E1AF
S1130760E150F0402040E1F700C000000E94550530
S113077019821A821B821C82C9CF0815190579F6C1
S11307808981F5019081891327C02A81F301908121
S1130790291322C02B81F201908129131DC02C81C1
S11307A0F1019081291318C00E9496058091EA01F5
S11307B00E9496058091EB010E9496058091EC01C0
S11307C00E9496050E949D000E94550584E591E0D3
S11307D00E94400580E0C5C00E94550584E091E078
S11307E00E9440050E948F000E947400FFEF29E6DA
S11307F088E1F15020408040E1F700C000000E94F1
S1130800550531CF0E94EE04833609F02CCF0E94A7
S113081055058CE291E00E9440059FEFE9E6F8E17E
S11308209150E040F040E1F700C000000E945505FF
S1130830F5011082F3011082F2011082F10110829D
S113084012CF88EC90E00E9440050E947305870156
S11308500E94EE048F3FE1F30E94EE04F8018193BD
S11308608F010E943405FFEF24E38CE0F150204017
S11308708040E1F700C000000815190549F7F701A9
S113088080810E949605F50180810E949605F601FB
S113089080810E949605F30180810E9496050E9442
S11308A09F058823E1F30E949A05F2018083813039
S11308B0A9F50E94550589E691E00E9440050E9431
S11308C09D00FFEF29E688E1F15020408040E1F7E8
S11308D000C000000E9455058EE791E00E9440058B
S11308E00E946F0581E991E00E9440050E94730512
S11308F08FE991E00E9440050E9477058EEA91E01D
S11309000E9440059FEFE9E6F8E19150E040F04095
S1130910E1F700C000000E94AD0223C03A94B1F098
S11309200E94550581EC91E00E9440050E948F00D1
S11309300E9474002FEF89E698E121508040904096
S1130940E1F700C000000E9455057BCF0E945505C9
S113095084ED91E00E9440050E9465000E947400AD
S1130960FDCF0F900F900F900F90DF91CF911F91BB
S11309700F91FF90EF90DF90CF90BF90AF909F903A
S11309808F907F906F905F904F903F902F9008953D
S11309900E9455058EE791E00E9440050E946F0574
S11309A081E991E00E9440050E9473058FE991E07E
S11309B00E9440050E9477058EEA91E00E9440055E
S11309C02FEF89E698E1215080409040E1F700C084
S11309D000000E94AD020E946101089580E090E051
S11309E041E050E0BC019A01082E02C0220F331FDF
S11309F00A94E2F72ABB20952BBB29B3207F203E23
S1130A00A9F029B3207F203D59F029B3207F203B52
S1130A1051F029B3207F2037A9F4E3E0F0E008C0C7
S1130A20E1E0F0E005C0E2E0F0E002C0E0E0F0E088
S1130A30660F771F660F771FE60FF71FE459FF4F06
S1130A408081089501968430910561F68FEF0895B1
S1130A5085BB92989398949889EF90E00197F1F769
S1130A6000C00000949A089585BB929A9398949834
S1130A7089EF90E00197F1F700C00000949A08957F
S1130A801F93CF93DF93EC018881882351F010E00A
S1130A900E9434051F5FFE01E10FF11D8081811169
S1130AA0F7CFDF91CF911F91089581E00E9428052F
S1130AB008958FEF84BB8CE181BB0E94550582E3CE
S1130AC00E94280588E00E94280586E00E942805E7
S1130AD088E30E9428058FE00E942805089580EC91
S1130AE00E942805089584E90E942805089584ED4C
S1130AF00E94280508951F920F920FB60F92112499
S1130B008F9381E08093ED018CB18093EE018F91FE
S1130B100F900FBE0F901F9018951BB888E98AB9E3
S1130B2086E880BD10BC83E389B908955D9BFECF40
S1130B308CB908951092ED018091EE010895809191
S1130B40ED010895FC0188279927E894219120322A
S1130B50E9F3293010F02E30C8F32B3241F02D3256
S1130B6039F4689404C00E94C005820F911D21913C
S1130B7020532A30C0F31EF4909581959F4F089519
S1130B807AE0979F902D879F802D910D11240895D1
S1070B90F894FFCF03
S1130B944202010042030100420601002F393837A2
S1130BA4783635342D3332312B3D306320706C7AF2
S1130BB420656E74657220736572766F20616E674A
S1130BC46C6520002077726F6E672076616C7565A2
S1130BD42000206F70656E696E6720746865204418
S1130BE46F6F72200020636C6F73696E6720746882
S1130BF46520446F6F72200020506C7A20656E74F7
S1130C0465722050617373777264200020706C7A6B
S1130C14207265656E746572207061737377726493
S1130C24002070617373776F7264206368616E6708
S1130C34656420002070617373776F7264206D693A
S1130C44736D61746368200020506C7A205365745A
S1130C54757020506173737772642000207061731F
S1130C647377726420636C6561726564200020503C
S1130C746C7A207265656E74657220706173737723
S1130C847264200020706C7A2072657374617274CB
S1130C942073797374656D200020706173737772A7
S1130CA46420697320636F72726563742000206327
S1130CB4686F6F736520616E206F7074696F6E2046
S1130CC40020312D6F70656E20446F6F72200020F8
S1130CD4322D636C6F736520446F6F722000203370
S1130CE42D6368616E676520706173737772642025
S1130CF40020706173737772642069732077726F54
S1130D046E6720002073797374656D206973206C99
S1090D146F636B656400CF
S9030000FC
